S015000053796E7468446576626F6172642E73726563D2
S11300000C9485000C94AD000C94AD000C94AD00E0
S11300100C94AD000C94AD000C94AD000C94B9029A
S11300200C94AD000C94AD000C94AD000C940E0235
S11300300C94AD000C94AD000C94C9010C94AD006B
S11300400C94AD000C94AD000C94AD000C94AD0078
S11300500C94AD000C94AD000C94AD000C94AD0068
S11300600C94AD000C94AD0007634236B79BD8A73F
S11300701A39685618AEBAAB558C1D3CB7CC5763C9
S1130080BD6DEDFD753EF6177231BF000000803F77
S113009005A84CCDB2D44EB93836A9020C50B9914A
S11300A08688083CA6AAAA2ABE000000803F080051
S11300B00000BE922449123EABAAAA2ABECDCCCCE3
S11300C04C3E00000080BEABAAAAAA3E000000007D
S11300D0BF000000803F0000000000084178D3BB4F
S11300E04387D1133D190E3CC3BD4282AD2B3E68FC
S11300F0EC8276BED98FE1A93E4C80EFFFBE01C4ED
S1130100FF7F3F0000000000A30411241FBECFEFB7
S1130110D4E0DEBFCDBF11E0A0E0B1E0EAE4F7E156
S113012002C005900D92A634B107D9F722E0A6E4E7
S1130130B1E001C01D92A03CB207E1F710E0C5E8B0
S1130140D0E004C02197FE010E948E0BC438D10771
S1130150C9F70E941D040C94A30B0C9400000F9388
S1130160FC016083418322830383148215821782F6
S113017016820F9108950F931F93CF938C01FC0166
S1130180808191810E947C01882311F0C2E001C02A
S1130190C0E0F801828193810E947C018111C160D9
S11301A08C2FCF911F910F9108950F93CF93DF93CD
S11301B0EC01798368835B834A832C830D831E82DD
S11301C00E94BB008F83DF91CF910F910895CF934D
S11301D0DF93EC010E94BB0088879F81891701F19E
S11301E0933019F48130D9F404C0911109C08230DC
S11301F0B1F49E812D81921790F49F5F9E830FC06E
S1130200923019F4882329F00AC0913041F48330E4
S113021031F49E812C81291710F491509E838F8391
S11302208E81DF91CF910895CF93DF93FC01718389
S1130230608342832130310591F022303105D9F0B9
S1130240232B89F5FB01229181E090E002C0880F05
S1130250991F4A95E2F780958223808324C0FB018D
S1130260229181E090E002C0880F991F4A95E2F73D
S1130270822B808318C0DB013E9181E090E0EC0189
S113028002C0CC0FDD1F4A95E2F72C2F20952323C3
S11302902C93DB012C91028002C0880F991F0A94D1
S11302A0E2F7822B8C93DF91CF910895DC01ED91DD
S11302B0FC911197408121E030E0C90112960C9025
S11302C002C0880F991F0A94E2F7842B8083089553
S11302D0DC01ED91FC911197408121E030E0B901FE
S11302E012960C9002C0660F771F0A94E2F7CB01B6
S11302F08095842380830895DC01ED91FC9111970E
S11303003297408121E030E0C90112960C9002C07E
S1130310880F991F0A94E2F78423089588E4809350
S1130320B8000895ECEBF0E0108294EA9083908199
S11303309923ECF79091B900987F9830A1F48093B9
S1130340BB0084E88093BC00ECEBF0E08081882360
S1130350ECF79091B900987F983139F081E09034AE
S113036029F480E0089581E0089580E00895809361
S1130370BB0084E88093BC00ECEBF0E08081882330
S1130380ECF79091B900987F81E0983209F480E00D
S113039008951F920F920FB60F921124CF92DF92FD
S11303A0EF92FF922F933F934F935F936F937F93BB
S11303B08F939F93AF93BF93EF93FF938EE591E059
S11303C00E947A05C0902501D0902601E090270173
S11303D0F0902801682F70E080E090E00E944408CB
S11303E0A70196010E94A1070E941308CB010E9455
S11303F06305FF91EF91BF91AF919F918F917F9191
S11304006F915F914F913F912F91FF90EF90DF900B
S1130410CF900F900FBE0F901F9018951F920F92C0
S11304200FB60F921124CF92DF92EF92FF922F9387
S11304303F934F935F936F937F938F939F93AF9368
S1130440BF93EF93FF931092840020914A0130915F
S11304504B0180910501909106012817390709F095
S11304606AC0209148013091490180910101909125
S113047002012817390721F410924901109248010A
S113048060914801709149016F5F83E792E00E9497
S1130490C306E0914801F0914901EE0FFF1FEB5EA6
S11304A0FE4F6081062E000C770B65547109072EF0
S11304B0000C880B990B0E94440820E030E040E4D3
S11304C051E40E94A1079B01AC0160E070E080E070
S11304D090E40E94660929E23CE146E254E40E9469
S11304E0F9086B017C016091290170E080E090E0E3
S11304F00E9444089B01AC01C701B6010E94A107F8
S1130500AB01BC018EE591E00E94CC0580914801CD
S1130510909149010196909349018093480110926A
S11305204B0110924A018091030190910401909330
S113053006018093050180914A0190914B01019637
S113054090934B0180934A01FF91EF91BF91AF913A
S11305509F918F917F916F915F914F913F912F91D7
S1130560FF90EF90DF90CF900F900FBE0F901F90F1
S113057018951F920F920FB60F921124CF92DF920B
S1130580EF92FF920F931F932F933F934F935F9399
S11305906F937F938F939F93AF93BF93EF93FF9347
S11305A08AE692E00E94E700809300018091460170
S11305B090914701892B81F487EB92E00E947C01A2
S11305C0882351F081E090E09093470180934601A5
S11305D015BC1092810018C080914601909147018A
S11305E0019791F487EB92E00E947C01882361F0EB
S11305F0109247011092460185B5836085BDE1E8FC
S1130600F0E080818360808360910001862F90E018
S1130610A0E0B0E08C019D01000F111F221F331FC9
S1130620000F111F221F331F000F111F221F331F22
S1130630BC01CD01601B710B820B930B0F2EF7E0F5
S1130640CF2ED12CE12CF12CF02DA70196010E9484
S1130650680BDA01C9010796A11DB11D9C01220F87
S1130660331FF901E95FFE4F8081918190934D0121
S113067080934C0160910001862F90E0A0E0B0E0EF
S11306808C019D01000F111F221F331F000F111F2A
S1130690221F331F000F111F221F331FBC01CD0166
S11306A0601B710B820B930BA70196010E94680BD0
S11306B0CA01B901695F7F4F8F4F9F4F89E792E06D
S11306C00E94E806FF91EF91BF91AF919F918F91A6
S11306D07F916F915F914F913F912F911F910F9156
S11306E0FF90EF90DF90CF900F900FBE0F901F9070
S11306F0189514BC84B5826084BD85B5836085BDBE
S113070087B5826387BDEEE6F0E0808182608083F6
S113071008958AEF8093880088E08093800083E0C6
S11307208093810082E080936F00089586E980932E
S1130730B300E0EBF0E0808188608083E1EBF0E0DF
S113074080818660808382E0809370000895ECE766
S1130750F0E0808187668083EAE7F0E08081876843
S113076080830895ECE7F0E090818F709066892B88
S11307708083EAE7F0E0808180648083808186FD65
S1130780FDCF809179000895EF92FF920F931F930C
S1130790CF93DF9308EA12E0C0E0D0E0E82EF12C1A
S11307A097010C2E02C0359527950A94E2F720FF95
S11307B004C0C8010E94560103C0C8010E94680118
S11307C021960D5F1F4FC830D10551F785EA92E09D
S11307D00E947C01DF91CF911F910F91FF90EF90C8
S11307E00895EF92FF920F931F93CF93DF9301EB42
S11307F012E0C0E0D0E0E82EF12C97010C2E02C0EC
S1130800359527950A94E2F720FF04C0C8010E9499
S1130810560103C0C8010E94680121960D5F1F4F55
S1130820C430D10551F787E00E94B203DF91CF9124
S11308301F910F91FF90EF9008950E94A7030E94CB
S113084079030E9489030E949603789480E60E94AB
S113085059050F2EFEE4EF2EF1E0FF2EF02D812C32
S1130860912C54018A940EE411E0C0E08C2F0E9474
S1130870F10390E0F801819391938F01CF5FC4302D
S1130880A9F7F701A081B18124E833E00E94870B26
S1130890A50194010E94680BDA01C9018C599F4F8C
S11308A0AF4FBF4F9093040180930301F7018281FE
S11308B09381092E000CAA0BBB0BAC01BD01440FA4
S11308C0551F661F771F440F551F661F771F440F60
S11308D0551F661F771F8A019B01080F191F2A1FC6
S11308E03B1FC901B801A50194010E94680BCA010C
S11308F0B9016F5F7F4F8F4F9F4F0E9444086093F1
S113090025017093260180932701909328018091FB
S1130910460190914701019709F0A5CF05E111E047
S1130920C0E08C2F0E94C403882339F080914C01CD
S113093090914D01F80191838083CF5F0E5F1F4F2B
S1130940C83079F790CF0F9320E030E043E06BE2BA
S113095070E08AEB92E00E94140120E030E044E071
S11309606BE270E08DEB92E00E94140120E030E035
S113097040E065E270E087EB92E00E94140121E020
S113098030E041E068E270E081EB92E00E94140103
S113099021E030E040E068E270E084EB92E00E9405
S11309A0140121E030E042E065E270E088EA92E080
S11309B00E94140121E030E043E065E270E08BEA3C
S11309C092E00E94140121E030E044E065E270E02E
S11309D08EEA92E00E94140120E030E041E065E2FA
S11309E070E085EA92E00E94140121E030E043E0E7
S11309F068E270E08CE992E00E94140121E030E0AA
S1130A0042E068E270E08FE992E00E94140121E084
S1130A1030E045E065E270E082EA92E00E94140171
S1130A2021E030E045E06BE270E083E992E00E946F
S1130A30140121E030E046E06BE270E086E992E0E8
S1130A400E94140121E030E047E06BE270E089E9A4
S1130A5092E00E94140129E932E046E952E063E998
S1130A6072E089E792E00E94CF0622EA32E04FE981
S1130A7052E06CE972E083E792E00E947D0607E0B1
S1130A8020E04DEB52E06AEB72E08AE692E00E94CD
S1130A90D50060E070E08EE591E00E94620608EC0B
S1130AA028EC48EC62E386E591E00E94AF000F91E8
S1130AB00895CF93C82F0E948E018C2F880F0E9417
S1130AC09201CF910895CF93DF93EC0180E40E94CB
S1130AD0B701CE01929582958F7089279F708927DF
S1130AE00E94B7018C2F8295807F0E94B701DF910D
S1130AF0CF910895CF92DF92EF92FF920F931F93BD
S1130B00CF93DF93EC018C010C5F1E4FFC01E85F77
S1130B10FE4F2081318142815381F80160817181CE
S1130B20828193810E9435076B017C01F801608307
S1130B3071838283938320E030E040E853E40E9491
S1130B40F4088823CCF020E030E040E853E4C70107
S1130B50B6010E9434076B017C0120E030E040E8DC
S1130B6053E40E94F408882374F7FE01EC5FFE4FFF
S1130B70C082D182E282F382C701B6010E941308C7
S1130B80C60FD71F8881DF91CF911F910F91FF90DE
S1130B90EF90DF90CF9008950F931F93CF93DF933F
S1130BA09C01CB01BA018901085F1E4FE901D3956D
S1130BB020E030E040E853E40E94F9089B01AC01D6
S1130BC0688179818A819B810E94F908F801608398
S1130BD0718382839383DF91CF911F910F91089545
S1130BE00F931F93CF93DF936130710509F441C0D4
S1130BF01CF4672B51F061C06330710509F44AC0DD
S1130C006430710509F44FC058C0EC0100E010E0F5
S1130C10B801012E000C880B990B0E9444082BED9F
S1130C203FE049EC50E40E94F90820E030E040E85D
S1130C305BE30E94F9080E94B60920E030E040E836
S1130C405FE30E94350720E030E040E05FE30E946C
S1130C50F90820E030E04FE753E40E94F9080E94CD
S1130C60130869930F5F1F4F011531E0130781F6D5
S1130C7024C0FC0180E090E02FE78038910514F453
S1130C80208301C0108201963196811531E09307CB
S1130C90A1F713C0FC01939520E021932F5FE8177F
S1130CA0F907D9F70AC0FC01EF5FFE4F019620E077
S1130CB0229321508E179F07D9F7DF91CF911F916F
S1130CC00F9108950F931F93FC01F39507E117EB20
S1130CD021E539E300831183228333833496108220
S1130CE0118212821382349610821182128213822C
S1130CF00E94F0051F910F910895FC017183608398
S1130D0053834283358324830895EF92FF920F9394
S1130D101F93CF93DF938C01E62EFC018481958190
S1130D200E946801C0E0D0E0F12CF8018281938137
S1130D300E946801C7010C2E02C0959587950A94FC
S1130D40E2F780FF06C0F801808191810E9468016A
S1130D5005C0F801808191810E945601F8018281C9
S1130D6093810E9456012196C730D105F1F6F8010E
S1130D70848195810E945601DF91CF911F910F913B
S1130D80FF90EF9008956A3030F4E62FF0E0E45CD1
S1130D90FE4F608101C060E00E9485060895CF93F4
S1130DA0DF93EC0182E1EAE2F1E0DE0118960190C2
S1130DB00D928A95E1F7798368835B834A833D8347
S1130DC02C8381E090E09F838E83DF91CF910895FF
S1130DD0CF92DF92EF92FF920F931F93CF93DF9303
S1130DE08C01C62FFC01828193810E94680181E0FD
S1130DF090E07C0102C0EE0CFF1CCA95E2F7C8E04B
S1130E00D0E0CC24C394D12CF801848195810E9434
S1130E106801C6010C2E02C0880F991F0A94E2F7DC
S1130E208E219F21892B31F0F801808191810E94CC
S1130E30560105C0F801808191810E946801F80182
S1130E40848195810E9456012197F0F6F8018281F0
S1130E5093810E945601DF91CF911F910F91FF90D2
S1130E60EF90DF90CF9008955058BB27AA270E9497
S1130E704C070C94BA080E94AC0838F00E94B308DE
S1130E8020F039F49F3F19F426F40C94A9080EF4C9
S1130E90E095E7FB0C94A308E92F0E94CB0858F3D4
S1130EA0BA17620773078407950720F079F4A6F54B
S1130EB00C94ED080EF4E0950B2EBA2FA02D0B0127
S1130EC0B90190010C01CA01A0011124FF27591B8B
S1130ED099F0593F50F4503E68F11A16F040A22F91
S1130EE0232F342F4427585FF3CF46953795279502
S1130EF0A795F0405395C9F77EF41F16BA0B620B01
S1130F00730B840BBAF09150A1F0FF0FBB1F661F47
S1130F10771F881FC2F70EC0BA0F621F731F841F8A
S1130F2048F4879577956795B795F7959E3F08F0B0
S1130F30B0CF9395880F08F09927EE0F9795879572
S1130F4008950E94B5070C94BA080E94B30858F09B
S1130F500E94AC0840F029F45F3F29F00C94A308E8
S1130F6051110C94EE080C94A9080E94CB0868F364
S1130F709923B1F3552391F3951B550BBB27AA274E
S1130F8062177307840738F09F5F5F4F220F331F88
S1130F90441FAA1FA9F335D00E2E3AF0E0E832D050
S1130FA091505040E695001CCAF72BD0FE2F29D053
S1130FB0660F771F881FBB1F261737074807AB0725
S1130FC0B0E809F0BB0B802DBF01FF2793585F4F9A
S1130FD03AF09E3F510578F00C94A3080C94EE0867
S1130FE05F3FE4F3983ED4F3869577956795B7957C
S1130FF0F7959F5FC9F7880F911D9695879597F987
S11310000895E1E0660F771F881FBB1F62177307FF
S11310108407BA0720F0621B730B840BBA0BEE1F14
S113102088F7E09508950E94D30888F09F5798F0B8
S1131030B92F9927B751B0F0E1F0660F771F881FD9
S1131040991F1AF0BA95C9F714C0B13091F00E94F3
S1131050ED08B1E008950C94ED08672F782F8827E8
S1131060B85F39F0B93FCCF3869577956795B3951A
S1131070D9F73EF490958095709561957F4F8F4F89
S11310809F4F0895E89409C097FB3EF4909580958E
S1131090709561957F4F8F4F9F4F9923A9F0F92F3A
S11310A096E9BB279395F695879577956795B795B8
S11310B0F111F8CFFAF4BB0F11F460FF1BC06F5F9E
S11310C07F4F8F4F9F4F16C0882311F096E911C0B0
S11310D0772321F09EE8872F762F05C0662371F0D1
S11310E096E8862F70E060E02AF09A95660F771FE5
S11310F0881FDAF7880F9695879597F90895990FC1
S11311000008550FAA0BE0E8FEEF16161706E807CD
S1131110F907C0F012161306E407F50798F0621BEE
S1131120730B840B950B39F40A2661F0232B242BC3
S1131130252B21F408950A2609F4A140A6958FEFE2
S1131140811D811D089597F99F6780E870E060E034
S113115008959FEF80EC089500240A94161617064C
S113116018060906089500240A9412161306140694
S113117005060895092E0394000C11F4882352F0F7
S1131180BB0F40F4BF2B11F460FF04C06F5F7F4FAF
S11311908F4F9F4F089557FD9058440F551F59F096
S11311A05F3F71F04795880F97FB991F61F09F3F50
S11311B079F087950895121613061406551FF2CF79
S11311C04695F1DF08C0161617061806991FF1CFC9
S11311D086957105610508940895E894BB276627F0
S11311E07727CB0197F908950E947F0808F48FEFC1
S11311F008950E940C090C94BA080E94AC0838F0B7
S11312000E94B30820F0952311F00C94A3080C94C9
S1131210A90811240C94EE080E94CB0870F3959F42
S1131220C1F3950F50E0551F629FF001729FBB27D9
S1131230F00DB11D639FAA27F00DB11DAA1F649F75
S11312406627B00DA11D661F829F2227B00DA11D28
S1131250621F739FB00DA11D621F839FA00D611DAE
S1131260221F749F3327A00D611D231F849F600DCF
S1131270211D822F762F6A2F11249F5750409AF0F8
S1131280F1F088234AF0EE0FFF1FBB1F661F771F84
S1131290881F91505040A9F79E3F510580F00C944F
S11312A0A3080C94EE085F3FE4F3983ED4F38695CC
S11312B077956795B795F795E7959F5FC1F7FE2BEF
S11312C0880F911D9695879597F90895FA01EE0F69
S11312D0FF1F309621053105A1F16115710561F4F7
S11312E08038BFE39B0749F168949038810561F029
S11312F08038BFEF9B0741F099234AF5FF3FE10592
S11313003105210519F1E8940894E795D901AA2338
S113131029F4AB2FBE2FF85FD0F310C0FF5F70F439
S1131320A695E0F7F73950F019F0FF3A38F49F77B3
S11313309F930DD00F9007FC9058089546F00C949D
S1131340A90860E070E080E89FE308954FE79F7785
S11313505F934F933F932F930E94A80A2F913F913D
S11313604F915F910E94F9080C94C6099F930E94C3
S1131370210A0F9007FCEE5F0C944A0A29F416F038
S11313800C94A3080C94ED080C94A9080E94D308AB
S1131390A8F39638A0F707F80F92E8942BE33AEAFB
S11313A048EB5FE70E940F090F920F920F924DB71F
S11313B05EB70F920E94F00AE8E6F0E00E94F80996
S11313C04F915F91EF91FF91E595EE1FFF1F49F05B
S11313D0FE57E0684427EE0F441FFA95E1F7419564
S11313E0550B0E946A0A0F9007FE0C945E0A08953A
S11313F0DF93CF931F930F93FF92EF92DF927B01C2
S11314008C01689406C0DA2EEF010E940C09FE01DB
S1131410E894A5912591359145915591A6F3EF0155
S11314200E944C07FE019701A801DA9469F7DF9046
S1131430EF90FF900F911F91CF91DF9108950C943D
S1131440A9080E94D308D8F3E894E0E0BB279F578B
S1131450F0F02AED3FE049EC06C0EE0FBB0F661F2B
S1131460771F881F28F0B23A62077307840728F0B1
S1131470B25A620B730B840BE3959A9572F780381A
S113148030F49A95BB0F661F771F881FD2F79048D8
S11314900C94260BEF93E0FF07C0A2EA2AED3FE08D
S11314A049EC5FEB0E944C070E94BA080F9003942A
S11314B001FC9058E0E9F0E00C94320B9B01AC0184
S11314C060E070E080E89FE30C94A1070C94A3080B
S11314D00C94240B0E94D308D8F39923C9F3940FD6
S11314E0511DA3F39150504094F059F0882332F0E9
S11314F0660F771F881F91505040C1F79E3F5105DA
S11315002CF7880F911D9695879597F908955F3F5D
S1131510ACF0983E9CF0BB27869577956795B79578
S113152008F4B1609395C1F7BB0F58F711F460FF4D
S1131530E8CF6F5F7F4F8F4F9F4FE3CF0C94EE0840
S113154016F00C94240B0C94A90868940C94A3082A
S11315500E94D308A8F39923C1F3AEF3DF93CF938A
S11315601F930F93FF92C92FDD2788232AF0219719
S1131570660F771F881FDAF720E030E040E85FEB62
S11315809FE3883920F0803E38F021968F770E94BF
S11315903507EEEAF0E004C00E943507EBEDF0E019
S11315A00E94F8098B01BE01EC01FB2E6F577109F3
S11315B07595771F880B990B0E94440828E132E740
S11315C041E35FE30E940C09AF2D9801AE01FF9047
S11315D00F911F91CF91DF910E944C070C94BA0890
S11315E0FA01DC01AA0FBB1F9B01AC01BF5728F411
S11315F0222733274427507820C0B75190F4AB2FCB
S11316000024469537952795011CA395D2F3002015
S113161071F0220F331F441FB395DAF30ED00C94EC
S1131620340761307105A0E88A07B94630F49B019C
S1131630AC016627772788279078309621F020839D
S113164031834283538308959F3F31F0915020F4B6
S1131650879577956795B795880F911D969587958A
S113166097F908959F938F937F936F93FF93EF93CD
S11316709B01AC010E94F908EF91FF910E94F809C7
S11316802F913F914F915F910C94F908A1E21A2E8A
S1131690AA1BBB1BFD010DC0AA1FBB1FEE1FFF1F12
S11316A0A217B307E407F50720F0A21BB30BE40B62
S11316B0F50B661F771F881F991F1A9469F76095A9
S11316C07095809590959B01AC01BD01CF01089563
S11316D0052E97FB1EF400940E947F0B57FD07D044
S11316E00E94460B07FC03D04EF40C947F0B5095DC
S11316F04095309521953F4F4F4F5F4F08959095FA
S11317008095709561957F4F8F4F9F4F08950E94EC
S1131710940BB7FF0895821B930B0895EE0FFF1FE0
S11317200590F491E02D0994A29FB001B39FC001EC
S1131730A39F700D811D1124911DB29F700D811DF9
S10D17401124911D0895F894FFCFC1
S113174A390800F401F4014500470048004A004CF6
S113175A004D004F004500470048004A0045004735
S113176A0048004A000000803F02FF007F003F005B
S113177A1F000F0007000300010000007E306D798E
S109178A335B5F70FF7B7E
S9030000FC
